:10000000F8FF002011040000D7430000D743000090
:10001000D7430000D7430000D7430000D743000078
:10002000D7430000D7430000D7430000D743000068
:10003000D7430000D7430000D7430000D743000058
:10004000D7430000D7430000D7430000D743000048
:10040000FFFFFFFFFFFFFFFFFFFFFFFFFEFFFFFFFD
:1004100062B605F0D3FBFEE72DE9F04FA1B08046B0
:1004200017461D46029102AE0020706211AC6FF0BB
:1004300000490AE017F8011B0298C0470290002803
:1004400000F07882706A401C7062387808B9706A6F
:1004500072E22528EED10020F06030617061B06159
:10046000F061306201E040F0010017F8011F20291F
:10047000F9D023290ED02B2904D02D2906D03029DC
:100480000CD00FE040F0020080B2EEE740F0040034
:1004900080B2EAE740F0080080B2E6E740F01000E2
:1004A00080B2E2E72A290DD129680A1D2A6009686D
:1004B000F162002904D54942F16240F0040080B2A3
:1004C0007F1C11E00021F16209E0F16A494505D085
:1004D00001EB810302EB43013039F1627F1C3A7872
:1004E000A2F130010A29F0D339782E291CBF4FF030
:1004F000FF31B1621CD117F8011F2A2906D12968E2
:100500000A1D2A600968B1627F1C11E00021B162F6
:1005100009E0B16A494505D001EB810302EB4301D3
:100520003039B1627F1C3A78A2F130010A29F0D348
:10053000308639780FF6242000F02EFD08B117F828
:10054000010B8DF83A009DF83A00682804D13878FC
:1005500068280AD1622005E06C2804BF38786C282E
:1005600003D171208DF83A007F1C11A8B0603A7851
:100570001046253821D02038022870D9133800F0D1
:100580009A800B3800F03781401E00F0DD80401E5D
:10059000022864D9001F00F0D780401F34D0401ECD
:1005A00000F08980401E24D0C01E0CD0801E00F0B8
:1005B0008280C01E00F07F8026E1F068411CF1605F
:1005C000252101552AE12868011D29600068706015
:1005D000B26A002A03D500F0EBFC30611EE1002175
:1005E00000F002FD00281ABF7168401AB06A30613D
:1005F00014E12868011D296000680021CDE900018F
:1006000011A870607821F2E09DF83A00622818D0B5
:10061000682806D06A280BD06C2819D0712807D01A
:1006200016E02868011D2960716A00680180F5E004
:100630002A68101D2860706AC1171268C2E900019B
:10064000ECE02868011D2960716A00680170E5E02E
:100650002868011D2960716A00680160DEE0286871
:10066000C01D20F007002860034603F10800286041
:10067000D3E90001CDE90001002904D5F068411C4F
:10068000F1602D210DE0308E810704D5F068411C0A
:10069000F1602B2105E0C00704D5F068411CF16032
:1006A00020210155F06811A940187060114600A87A
:1006B00000F0D8F9B2E09DF83A306C2B08BF2868FA
:1006C00011D0712B08BF286802D06A2B28680AD184
:1006D000C01D20F00700286084460CF10800286047
:1006E000DCE9000103E0011D296000680021CDE97B
:1006F0000001682B04BFDDE9000180B20BD0622B42
:1007000004BFDDE90001C0B205D0742B18BF7A2BFD
:1007100004D1DDE900010021CDE9000196F83000A7
:1007200000075FD5DDE90001002908BF002859D086
:1007300042F02000782855D1F06830210155401C46
:10074000411CF16002554DE09DF83A0062280CD042
:10075000682810D06A281AD06C2824D0712816D0A6
:10076000742820D07A280CD01DE02868011D29604B
:1007700090F900001BE02868011D2960B0F9000015
:1007800015E02868011D29600068002110E0286834
:10079000C01D20F007002860034603F10800286010
:1007A000D3E9000104E02868011D29600068C11731
:1007B000CDE90001DDE90001002904DAF068411CFF
:1007C000F1602D210DE0308E810704D5F068411CC9
:1007D000F1602B2105E0C00704D5F068411CF160F1
:1007E00020210155F06811A940187060114600A839
:1007F00000F0A5F812E0F068411CF16029680A1DBC
:100800002A600968015509E0F068411CF160252162
:1008100001551AB1F068411CF16002557F1CF06A65
:10082000F168401AB169401A3169401AF169401AF9
:100830007169401A316AA0EB010A96F8300040074E
:1008400011D420208DF84000BAF1010F0BDBD34604
:10085000012310AA00A9404600F069FB002869D1D5
:10086000BBF1010BF4D1F36811AA00A9404600F0D6
:100870005EFB00285ED130208DF84000D6F818B01D
:10088000BBF1010F0ADB012310AA00A9404600F0CA
:100890004EFB00284ED1BBF1010BF4D133697268D5
:1008A00000A9404600F043FB002843D130208DF8DA
:1008B0004000D6F81CB0BBF1010F09DB012310AAE0
:1008C00000A9404600F033FBA0BBBBF1010BF5D102
:1008D000736930697168421800A9404600F027FB2F
:1008E00040BB30208DF84000D6F820B0BBF1010F9E
:1008F00009DB012310AA00A9404600F018FBC8B983
:10090000BBF1010BF5D196F8300040077FF59DADA6
:1009100020208DF84000BAF1010FFFF696AD0123BB
:1009200010AA00A9404600F002FB18B9BAF1010A6A
:10093000F5D18AE54FF0FF3021B0BDE8F08F2DE909
:10094000FA4B86B005462F696F2908BF082605D0E7
:1009500041F02000782814BF0A2610263C24D5E94F
:10096000000181468B469DF81820642A18BF692A29
:1009700005D1002903DAD9F100096BEB4B0BBBF170
:10098000000F08BFB9F1000F0CD1286B50B9082E29
:1009900044D195F83800000740D53B24302087F833
:1009A0003B003BE0A4F101084446F017CDE90460A8
:1009B00048465946DDE9042300F042FBCDE9020137
:1009C000CDE9009BDDE90223DDE90401A0FB029BE8
:1009D000DDE90001A0EB09003030C0B23A2803D3B2
:1009E0009DF818105139081808F80700DDE9029B36
:1009F000BBF1000F08BFB9F1000F03D0E868E1199F
:100A00008842CFD3082E09D195F83800000705D5C4
:100A1000E05D302802D0641E3020E055C4F13C0077
:100A2000A861E119E960296B884207DA081A28628F
:100A3000288F4FF6EF710840288710E000290ED567
:100A400095F8381001F01401102908D1696B6A6912
:100A5000891A2A6A891A0C1A012CA8BF2C6208B0BC
:100A6000BDE8F08B2DE9F24F8CB0054602AFD5E919
:100A70000089286B002848BF062005D404BF41F038
:100A80002000672801D101202863C9F30A5040F2F1
:100A9000FF7398421DD15FEA093008BFB8F1000F1B
:100AA00009D10320A8619DF8300061381A2857D376
:100AB0000FF2BC4108E00320A8619DF830006138C6
:100AC0001A284AD30FF2A0410322E86800F030FB55
:100AD00000E1010008D1284600F065FB0128A4BF11
:100AE0000023002680F2ED8040F2FE316A6861F357
:100AF0001E526A60461A404649460022002300F012
:100B000075FB38BF89F0004936B247F29750704301
:100B1000724990FBF1F636B2C6F107077049012F12
:100B200021DBC246CB4690468946F80707D550469A
:100B3000594642464B4600F071FB82468B467F1079
:100B40004046494642464B4600F068FB804689468F
:100B5000002FEAD1D046D94629E00FF20841B3E789
:100B60000FF20841B0E77F429246DFF878B1CDE955
:100B7000002114D0F80707D550465946DDE9002377
:100B800000F04CFB82468B467F10DDE90001DDE979
:100B9000002300F043FBCDE90001002FEAD14046DD
:100BA000494652465B4600F00BFC804689469DF85C
:100BB000300040F0200ABAF1660F0CBF06F10A00BF
:100BC0000620296B4418142CA8BF132430208DF85C
:100BD00008000DF10907012C34DB4046494600F0BE
:100BE00029FD014607F1080204234FF00A0CB1FB6E
:100BF000FCF707EB870BA1EB4B01303102F8011D2D
:100C0000B7FBFCFC61460CEB8C0EA7EB4E073037B4
:100C100002F8017D5B1EE8D102F10807083C012CB7
:100C2000D9DB00F027FD02460B464046494600F05E
:100C30002FFD02460B4600202B4900F0EFFA8046BC
:100C40008946CAE70DF10900381A0DF109079DF828
:100C50000910302905D1401E761E17F8011F3029D2
:100C6000F9D0BAF1660F04BF36B2711C04D0BAF1E4
:100C7000650F0CBF012100212A6B8B181BB2984213
:100C8000B8BF03461BB2002B1BD41946814204DABD
:100C9000C85D352828BF392000D23020CA19521E1D
:100CA00000E05B1E491E12F801498442F9D0392840
:100CB00002D1C85D401CC855002902D57F1E5B1CAF
:100CC000761C36B200961BB23A469DF83010284684
:100CD00000F00CF80DB0BDE8F08F0000A086010018
:100CE000000024400000F03F84D797412DE9F047F1
:100CF00086B006468A4690461C46BDF9385000F03C
:100D0000A4FD406A90F80090376B012C02DA0124B0
:100D10000FF260284AF02000662808D0672840F0CB
:100D20008C806FF003018D4276DBBD4274DA6D1C5E
:100D300066280AD096F83800000702D4BC42B8BF33
:100D400027462DB27F1B48BF0027F068B1692DB23E
:100D5000012D21DA4A1C30230B54012F03DA96F8B7
:100D60003810090702D502F80090521CB261EF4218
:100D7000B8BF7D422DB269427162EF19A742B8BF78
:100D80003C4624B2F46122464146B369181800F08B
:100D9000CFF9381BB062B3E00818AC4216DA22462D
:100DA000414600F0C5F9B1696118B161281B706254
:100DB000012F03DA96F83800000705D5F06801F82E
:100DC0000090F069401CF061B76299E02A46414604
:100DD00000F0AEF9B0692818B061641B012F03DA86
:100DE00096F83810090704D5411CB161F16800F884
:100DF000019024B2A742B8BF3C4624B2224605EB7C
:100E00000801B069F368C01800F092F9B0692018C1
:100E1000B061381B706273E0BC4204DA96F8381097
:100E2000090758BF27467F1E48BF0027BAF1670F42
:100E30000CBF4FF0650A4FF0450AB1694A1CF068D3
:100E400018F8013B0B54012F03DA96F83810090704
:100E500002D502F80090521CB261012F10DB641E13
:100E600024B2A742B8BF3C4624B222464146B369E9
:100E7000181800F05DF9B0692018B061381B706275
:100E8000B069F16800EB010808F801AB002D5CBF08
:100E90002B2008F8010B03D52D2008F8010B6D421B
:100EA000002402AF2DB2012D0EDB0A22294600A834
:100EB00000F0E4FC019807F8010B009D641C2DB2C2
:100EC000012DF2DA022C06DA4AF02000652804BF70
:100ED000302008F8010B1CB9302008F8010B09E09C
:100EE000012C07DB641E02A8205C303008F8010BDF
:100EF000012CF7DAB069F1684018A8EB0000F06146
:100F000096F8380000F0140010280DD17069B1690E
:100F10000818716A0818F1690818B16A0818716B25
:100F20008842BCBF081A306206B0BDE8F087F8B549
:100F300004460D4616461F46002077B116F8011BE1
:100F4000A868A047A86030B1E86A401CE8620020A9
:100F50007F1EF3D1F2BD4FF0FF30F2BD686A6C74B2
:100F60007A4C00006E616E004E414E00696E660064
:100F7000494E4600300050F8041B61B150F8042B74
:100F8000D30744BFA9F101039A18002342F8043B98
:100F9000091FFAD1EFE770470278C9B28A421AB145
:100FA0001CBF10F8012FF9E718BF00207047FF00A1
:100FB00000F10103810704D010F8011B89B18107FA
:100FC000FAD10268B2F10131914311F0803F04BFC0
:100FD00050F8042FF6E710F8011B11B110F8011BAF
:100FE000FBE7C01A704701FEC9B2830706D0521E44
:100FF00022D310F8013B9942F7D11FE0083A13D3EE
:1010000002F1040241EA012141EA014150F8043BA6
:10101000121F21BF4B40A3F1013C2CEA030C1CF032
:10102000803FF3D0C9B2001F083210F8013B521EB6
:1010300028BF91EA030FF8D818BF0120401E70475F
:101040001B4213D1094236D12AB18446B0FBF2F0DB
:1010500002FB10C2704700F019BCFCD30022002331
:1010600070470B000200002100207047904271EB96
:10107000030CF6D370B5B1FA81F4B3FA83F52C1BE7
:10108000A340C4F1200532FA05F63343A2405FF0D5
:101090000046E64002E05B085FEA3202841A71EB28
:1010A000030524BF204629467641F4D302000B00F5
:1010B0003000002170BD012ACFD970B5140C20D0AA
:1010C000B1FA81F4B2FA82F5C4F120046419B4F1E2
:1010D0002006D6D3B2405FF00044F440002502E081
:1010E00052085FEA3303C61A71EB020E24BF304682
:1010F000714664416D41F3D302000B0020002900CA
:1011000070BD0C46B1FBF2F102FB11452D0445EA1E
:101110001045B5FBF2F402FB145580B240EA0545D8
:10112000B5FBF2F002FB105240EA044070BDFE0134
:1011300062B38B0708D0521E11F8013B00F8013B47
:1011400000F024808B07F6D1830740F0208000BF99
:10115000103A07D330B4B1E83810103AA0E838108C
:10116000F9D230BC530724BFB1E80810A0E808103A
:1011700044BF51F8043B40F8043BD20724BF31F888
:10118000022B20F8022B44BF0B7803707047083AFB
:1011900007D3B1E80810083A40F8043B40F804CB04
:1011A000F7D25307E4E730B4416801F0004201216F
:1011B00043681B031B0B436004BF0368002B0ED066
:1011C00003684468DD0F45EA440444605B00036043
:1011D000491EE302F4D543681B031B0B43604368BD
:1011E0001A434260084630BC704700004FF4001CB0
:1011F0001CEB410F94BF1CEB430F09E041EA030CC9
:1012000050EA4C0C52EA0C0C03D2994208BF9042AF
:10121000704714BF8B42824270470000B0B581EA2C
:10122000030C0CF0004C40F2FF7515EA11541DBF81
:1012300015EA1357AC42AF4239E0E41923EA4553AB
:1012400043F48013C90241F0004141EA505EC702F5
:101250001100A7FB020200284FF00000EEFB012066
:101260004FF00001E3FB072118BF42F001024018D4
:1012700000214941E3FB0E01A4F580640F0302D273
:1012800052004041494154F101046CDD470872F1BC
:10129000004250F1000051EB0451A1F580115CBFF8
:1012A00041EA0C01B0BD4CEA05510020B0BD05EA91
:1012B0001357AC4214BFAF4241E050EA410E1CBF8D
:1012C00052EA430E02E061460020B0BD24423C4495
:1012D0001BD15FEA070EF6D0090302BF01460020CA
:1012E000AEF1140EB1FA81F7AEEB070401FA07FE76
:1012F0000C37C7F1200100FA07F7C8404EEA000E8C
:1013000023EA455343F48013A2E733F00043B3FAD2
:1013100083F704BFB2FA82FE77440B3FE41BB7F1B8
:10132000200E2FBF02FA0EF3BB40C7F1200E22FAA7
:101330000EFE38BF43EA0E03BA40641C82E750EA4F
:10134000410E14BF52EA430E6FF000014FF4001734
:1013500017EB430F8ABF194617EB410FB5E74CEA6D
:1013600005510020B0BDD4F10104B4F120070FDA1B
:10137000C4F12007520828BF42F0010210FA07F515
:1013800001FA07F7E1BF2A43E0403843E1400FE0AC
:10139000352C98DCC7F1200452EA400220FA07F20B
:1013A00018BF42F0010231FA07F0A1400A430021C0
:1013B00072F1004250F1000051EB0C01B0BD000091
:1013C000F0B540F2FF7581EA030C0CF0004C15EA11
:1013D00011541DBF15EA1357AC42AF42E5E0BC41C2
:1013E000C1F31301C3F31303801A994143F480132B
:1013F00004D2641E4000494180185941C90241EAA3
:101400005051B1FBF3F603FB1611A2FB0675D7EBA7
:10141000C020A94102D2761E80185941C90241EA72
:101420005051B1FBF3FE03FB1E11A2FB0E75D7EB6F
:10143000C020A94103D2AEF1010E801859418902A2
:1014400041EA9051760546EA8E2EB1FBF3F603FB96
:101450001611A2FB0675D7EB8020A94102D2761E99
:1014600080185941C90241EA50514EEA060EB1FBBB
:10147000F3F603FB1611A2FB0675D7EBC020A941BA
:1014800002D2761E80185941C90241EA5051B1FB7F
:10149000F3F703FB1711A2FB0735D3EBC020A941DB
:1014A00067F100070CBF004247F0010766F3D5273C
:1014B0004FEA1E31B80814F5806412DDBD0775F1DE
:1014C000004250EB0E5051EB045111F5801F5CBFF0
:1014D00041EA0C01F0BD4CF07F6141F0E041002099
:1014E000F0BDBD076D0840EA0E5041F48011D4F103
:1014F0000104B4F120060ADAC4F120060200E0403B
:1015000001FA06F3E1401843B24015430EE0342CD3
:1015100013DCC6F1200445EA40056D0820FA06F206
:10152000154321FA06F0A1400D43002175F1004258
:1015300050F1000051EB0C01F0BD00205FEA0C01FE
:10154000F0BDCFB992185B41B3FA83F704BFB2FA8A
:1015500082F6BF190B3FB7F120062FBF02FA06F340
:10156000BB40C7F1200622FA06F638BF3343BA4023
:101570001CB1E419641E33E77F4231F00041B1FA37
:1015800081F404BFB0FA80F6A4190B3CB4F1200634
:101590002FBF00FA06F1A140C4F1200620FA06F69A
:1015A00038BF3143A0403C1B1AE7AC421ABF05EAE2
:1015B0001357AF4212E050EA41061CBF52EA4306FD
:1015C000BFE750EA4107304661461CBF41EA05517A
:1015D000F0BD52EA430C08BFC143F0BD00204FF4F8
:1015E000001616EB410F98BF16EB430F08BF16EB22
:1015F000410F24BFC14305E016EB430F0CBF61460A
:101600004CEA0551F0BD0000F446400D40EAC1200F
:10161000490006D200F014F8004248BF6FF00040C5
:10162000604700F00DF84FF0004188428CBF08463B
:1016300040426047400D40EAC120490080F00D80E3
:1016400040F00040490DA1F58061491C05D4D1F15D
:101650001F0154BFC840C01770474FF000007047CB
:10166000010040F10980F446404200F005F851F0D5
:1016700000416047010000BF09D0B0FA80F1884006
:10168000C91CC1F58461090501EBD02140057047F3
:1016900070B44FF0004591EA030F44BF6B4000F077
:1016A00001B900BF841A71EB030604D26E40001B1F
:1016B000B141121973414FF4001C1CEB410F34BFB0
:1016C0007CEB430684E00C0DA4EB1356362E7DDC38
:1016D000012E43DC45EAC32343EA525312BFD20230
:1016E00092025B08240545EAC12141EA5051D2EB40
:1016F000C020994125D407D1B0FA80F610FA06F13E
:1017000064D00020203608E0B1FA81F6B140C6F17D
:10171000200220FA02F21143B0404FEAF474B4EB15
:10172000465434F001064FEA74040AD8D6F5001680
:10173000760D04F00044F04061FA06F25040F140AA
:101740004840C00A40EA415021F0004128BF5FEA0A
:10175000500550F1000044EBD12137E045EAC323A6
:10176000DB0A45EAC121C90AB6F120050EDD42EACD
:101770000242120CC5F1200603FA06F6EB4042EADB
:1017800006056D42984161F100010DE062FA06F52F
:10179000F240554063FA06FC82EA0C02F3405A40DC
:1017A0006D42904161EB030111F4801F05D1641E6D
:1017B000620502D06D004041494121F48011430887
:1017C00075F1004350F1000041EB045170BC7047CB
:1017D0001CEB410F15D223F0004352EA43060BD015
:1017E0004FEA4C0CBCEB410F04D80C0D661E342E96
:1017F000B7DDEBE7801A994150EA410608BF0021A6
:10180000E4E708BF1CEB430F28BF6FF00001DDE7E2
:1018100080B5134800F0B0F80FF248010160416054
:101820008160C1600161416181610FF23C024262ED
:101830008162C162016341630FF2300282630FF281
:101840003402C2630164416401BD10B5044800F074
:1018500093F80446206808B9FFF7DAFF204610BD68
:101860008826FF1F000000002E00000066616C73D8
:1018700065000000747275650000000091FBF2F3D2
:1018800003FB1211C0E900317047000070470000EF
:1018900070B44FF0004591EA030C44BF6B40FFF772
:1018A00001BF00BF841A71EB030603D2001BB141D4
:1018B000121973414FF4001C1CEB410F34BF7CEB39
:1018C000430443E00C0DA4EB1356352E50DC45EADF
:1018D000C323DB0A45EAC121C912B6F120050DDD9B
:1018E00063FA05F6EB4086EA0305124218BF45F09D
:1018F0000105C01851F100010CD213E062FA06F59F
:10190000F2405540F3415A40B340F3405A408018EA
:10191000594107D349085FEA30005FEA350528BF1F
:1019200045F0010501F58011420875F1004250F1C2
:10193000000041EB045170BC4FF4001C1CEB410F44
:1019400038BF70470020090D090570471CEB410F97
:1019500010D252EA43060BD0BCEB410F05D80C0D58
:10196000AB43661E342EB5DD02E0AB43801859410F
:1019700070BC704770BC70477047000000000000EA
:101980000000000000000000000000000000000057
:10199000000000000000000000004E6F6E4D6173FB
:1019A0006B61626C6500000000486172644661759D
:1019B0006C740000000000004D656D4D616E616744
:1019C000656D656E7400004275734661756C7400D8
:1019D00000000000000055736167654661756C7416
:1019E00000000000000000000000000000000000F7
:1019F00000000000000000000000000000000000E7
:101A000000000000000000000000000000000000D6
:101A100000000000000000000000000000000000C6
:101A200000535643616C6C00000000000000000091
:101A300044656275674D6F6E69746F7200000000D7
:101A400000000000000000000000000000005065E1
:101A50006E645356000000000000000000537973CC
:101A60005469636B0000000000000000444D4130E9
:101A70000000000000000000000000444D41310063
:101A800000000000000000000000444D4132000052
:101A9000000000000000000000444D413300000041
:101AA0000000000000000000444D41340000000030
:101AB00000000000000000444D413500000000001F
:101AC000000000000000444D41360000000000000E
:101AD0000000000000444D413700000000000000FD
:101AE00000000000444D41380000000000000000EC
:101AF000000000444D4139000000000000000000DB
:101B00000000444D413130000000000000000000A2
:101B100000444D4131310000000000000000000091
:101B2000444D41313200000000000000000000443C
:101B30004D41313300000000000000000000444D22
:101B400041313400000000000000000000444D411D
:101B5000313500000000000000000000444D415FEE
:101B60004572726F720000000000004D434D00008E
:101B7000000000000000000000004654464C000039
:101B8000000000000000000000526561645F436FC8
:101B90006C6C6973696F6E004C56445F4C5657000D
:101BA000000000000000004C4C5700000000000046
:101BB0000000000000005761746368646F670000F4
:101BC0000000000000524E4700000000000000002E
:101BD0000000000049324330000000000000000017
:101BE0000000004932433100000000000000000006
:101BF00000005350493000000000000000000000C9
:101C000000535049310000000000000000000000B7
:101C10005350493200000000000000000000004363
:101C2000414E305F4F525F4D425F627566004341E7
:101C30004E305F4275735F4F666600000043414E51
:101C4000305F4572726F72000000000043414E30F9
:101C50005F54785F5761726E696E6743414E305FC3
:101C600052785F5761726E696E6743414E305F57BD
:101C7000616B655F55700000005265736572766533
:101C8000643531000000000052657365727665644A
:101C90003532000000000043414E315F4F525F4D2E
:101CA000425F6275660043414E315F4275735F4F1C
:101CB000666600000043414E315F4572726F7200EC
:101CC0000000000043414E315F54785F5761726EEF
:101CD000696E6743414E315F52785F5761726E693A
:101CE0006E6743414E315F57616B655F5570000011
:101CF0000052657365727665643539000000000036
:101D000052657365727665643630000000000055D8
:101D1000415254305F52585F545800000000554102
:101D20005254305F455252000000000000554152AD
:101D300054315F52585F54580000000055415254CE
:101D4000315F4552520000000000005541525432AC
:101D50005F52585F54580000000055415254325FA2
:101D600045525200000000000055415254335F526A
:101D7000585F54580000000055415254335F45529B
:101D80005200000000000055415254345F52585F29
:101D900054580000000055415254345F45525200DF
:101DA000000000000055415254355F52585F5458AE
:101DB0000000000055415254355F4552520000006A
:101DC000000000414443300000000000000000001B
:101DD000000041444331000000000000000000000A
:101DE00000434D50300000000000000000000000E3
:101DF000434D50310000000000000000000000438F
:101E00004D50320000000000000000000000465469
:101E10004D30000000000000000000000046544D5E
:101E200031000000000000000000000046544D3268
:101E30000000000000000000000000434D540000BE
:101E400000000000000000000000525443000000A9
:101E500000000000000000000052657365727665A6
:101E60006438330000000000504954300000000086
:101E70000000000000000050495431000000000044
:101E80000000000000005049543200000000000033
:101E90000000000000504954330000000000000022
:101EA000000000005044423000000000000000002C
:101EB0000000005553423000000000000000000008
:101EC000000055534244434400000000000000005D
:101ED00000454E45545F313538385F54696D657241
:101EE000454E45545F5472616E736D6974000045D0
:101EF0004E45545F52656365697665000000454E46
:101F000045545F4572726F72000000000049325301
:101F1000300000000000000000000000534448436F
:101F200000000000000000000000004441433000B9
:101F300000000000000000000000444143310000A8
:101F40000000000000000000005453493000000071
:101F500000000000000000004D43470000000000AA
:101F6000000000000000004C5054696D65720000D4
:101F700000000000000052657365727665643130C0
:101F80003200000000504F52544100000000000099
:101F900000000000504F52544200000000000000BA
:101FA000000000504F5254430000000000000000A9
:101FB0000000504F52544400000000000000000098
:101FC00000504F5254450000000000000000000087
:101FD00052657365727665643130380000000052D6
:101FE00065736572766564313039000000005265B2
:101FF000736572766564313130000000005265739C
:102000006572766564313131000000005265736598
:10201000727665643131320000000052657365727A
:102020007665643131330000000052657365727665
:102030006564313134000000005265736572766565
:102040006431313500000000526573657276656455
:102050003131360000000052657365727665643177
:102060003137000000005265736572766564313166
:10207000380000000052657365727665643131394D
:1020800000000000008003400090034000800B40EF
:1020900000F00F4040F00F4080F00F40C0F00F40C4
:1020A00000F10F40F0000A1D300018003200180146
:1020B000600018186400181A6E00181F78001318B2
:1020C0007D00131A8200131C8C000E1296000E1550
:1020D000A0000E18AA000E1BB4000E1EC8000C1C97
:1020E000E1000B1EFA000A1F0001090800900440DD
:1020F00000A0044000B0044000C0044000D00440F0
:1021000000A0064000B0064000C0064000D00640D7
:1021100000A00E4000B00E403435363701000000FC
:102120000DC1110009030CD01240173F18501903BC
:102130001A783200A00A63E0ACFF650C6600670005
:1021400029142C1E2A007E0C7F16802A814E826163
:10215000836F847B8586868E879788A489AF8AC59E
:102160008BD78CE88D204A00491347084B144C1735
:10217000460522992303A6049B009C3CAB069E11B6
:102180009F020000310000006A6E6B6C676D4E4F5D
:102190003031323334353637383900005100FEFFE4
:1021A000321D00000000C03F9A99193F0100000055
:1021B00000002041680168010101E8035E012C0173
:1021C0002C0100000000804000000040C201C2015C
:1021D000C201C201C201C201C201C201A401A40123
:1021E00068016801680168015E015E015E015E01CF
:1021F0005E015E015E015E0154015401540154010F
:102200005401540154014A014A014A0102040101E6
:102210001826FF1F6826FF1F1826FF1F1826FF1FFE
:102220001826FF1FDD0CFF1FC40CFF1F000000005D
:10223000000000000000000000000000000000009E
:1022400000000000000000000000000010B440B2D8
:102250004109DFF88027012310F01F04A34042F852
:10226000213010BC704780B5022000F0E6FDDFF899
:1022700068070068142101FB00F1012000F098FEBE
:102280000FF21101552000F0E2FE4520FFF7DEFFBE
:1022900001BD000010B5DFF84407006850F00100F0
:1022A000DFF838170860022000F04AFEDFF8301728
:1022B0000880022000F05AFEDFF82807B0F900007D
:1022C000DFF81C17B1F90010401ADFF81C1708805E
:1022D000DFF814070088DFF814170988401ADFF8C0
:1022E00010170880DFF80407DFF8FC160988018062
:1022F000DFF80007B0F9000000F0C0FE0400DFF8CE
:10230000F006B0F9000000F0B9FEDFF8EC1609683D
:1023100000F0CCFE210000F035FF0400DFF8C80615
:10232000B0F9000000F0AAFEDFF8D016096800F04E
:10233000BDFEDFF8CC1600F067FF210000F022FFA1
:1023400000F0E0FFDFF8BC160880DFF8A806DFF831
:10235000B41609880180DFF8AC06B0F9000040F23D
:10236000F511884204DBDFF89C064FF4FA71018016
:10237000DFF89006B0F90000002803D5DFF88406E6
:1023800000210180DFF880060278DFF87806B0F9D6
:102390000010DFF87006B0F9000000F099FADFF8DD
:1023A0006C06DFF83C16B1F90010018010BD10B5C5
:1023B0009CB00022642102A800F0C6FFDFF850168E
:1023C000042001F020F902A9DFF84806008801F096
:1023D000C7F902A9042001F016F90022642102A81D
:1023E00000F0B2FFBAA1042001F00DF9DFF82816C1
:1023F000042001F008F902A9DFF82006008801F0A6
:10240000AFF902A9042001F0FEF80022642102A81D
:1024100000F09AFFAEA1042001F0F5F8DFF80016F5
:10242000042001F0F0F8DFF8FC05B0F90000002806
:102430000AD5DFF8F005B0F9000040420400A5A17C
:10244000042001F0E0F804E0DFF8D805B0F900005E
:10245000040002A9200001F083F902A9042001F080
:10246000D2F80022642102A800F06EFF98A1042097
:1024700001F0C9F8DFF8B015042001F0C4F802A992
:10248000DFF8A805008801F06BF902A9042001F02B
:10249000BAF80022642102A800F056FF8CA10420A3
:1024A00001F0B1F8DFF88815042001F0ACF8022043
:1024B000019002200090DFF84005006801F076F9F5
:1024C00002000B0002A801F0D1F802A9042001F0DB
:1024D0009AF80022642102A800F036FF7CA10420B3
:1024E00001F091F8DFF84C15042001F08CF802207F
:1024F000019002200090DFF80405006801F056F911
:1025000002000B0002A801F0B1F802A9042001F0BA
:102510007AF80022642102A800F016FF6CA10420C2
:1025200001F071F86AA1042001F06DF868A104209F
:1025300001F069F866A1042001F065F864A10420A7
:1025400001F061F81CB010BD80B5042001F03DF829
:1025500001287DD100A9042001F01BF89DF900009D
:10256000612823D1DFF8A004007801280BD1DFF81F
:10257000980402780021002000F0AAF9DFF888040E
:102580000021017012E0DFF8800401210170DFF802
:1025900078040278DFF8A004B0F9001009B2DFF87F
:1025A0007404B0F9000000B200F092F99DF9000047
:1025B00062280FD1DFF84004006801F0F7F8DFF877
:1025C0007C24DFF87C34FFF763F901F017F9DFF8BA
:1025D000281408609DF9000063280FD1DFF8180463
:1025E000006801F0E3F8DFF85424DFF85834FFF70F
:1025F0004FF901F003F9DFF8001408609DF90000BD
:1026000064280FD1DFF8F403006801F0CFF8DFF899
:102610002C24DFF82C34FFF73BF901F0EFF8DFF85A
:10262000DC1308609DF9000065280FD1DFF8CC03AA
:10263000006801F0BBF8DFF80424DFF80834FFF786
:1026400027F901F0DBF8DFF8B4130860FFF7AFFEFD
:1026500001BD80B5DFF8F013452000F0F8FC042040
:1026600000F0E1FF01BD80B501220121862001F0CB
:102670000DF901220121872001F008F90122012131
:10268000882001F003F901220121892001F0FEF8E0
:10269000DFF8B803DFF8B81309680170DFF8B40396
:1026A000DFF8B41309680170DFF8B003DFF8B01386
:1026B00009680170DFF8AC03DFF8AC13096801703A
:1026C000DFF8A803DFF884130978017001BD00006A
:1026D0000A0000002D00000080B5002201210E201C
:1026E00001F0D4F801BD80B501220121802001F064
:1026F000CDF801220121812001F0C8F80122012139
:10270000822001F0C3F801220121832001F0BEF8EC
:1027100001220121842001F0B9F801220121852044
:1027200001F0B4F8D249802001F07EF9D04981202F
:1027300001F07AF9CE49822001F076F9CC49832064
:1027400001F072F9CA49842001F06EF9C849852068
:1027500001F06AF9C7496B2000F079FC5B20FFF7B4
:1027600075FD01BD80B5A84802780021002000F069
:10277000AFF8C148006850F00100BF490860FEE7AB
:1027800038B50400200001F011F80022BB4BFEF721
:1027900045FDFEF739FF80B205008F48006800FB59
:1027A00005F1002000F004FCB549542000F04FFC76
:1027B000AE480078002802D14420FFF747FD31BD24
:1027C00010B501F014FAAF4A0021002001F0CEFB51
:1027D000AD4A0121002001F0C9FBAC4A02210020D2
:1027E00001F0C4FBAA4A0321002001F0BFFBA94A63
:1027F0000421002001F0BAFBA74A0521002001F0C6
:10280000B5FBA64A0621002001F0B0FBA4480168F0
:102810007B4800F04BFC00F075FD0400220012B272
:102820000621182001F063FA10BD80B5002001F0E8
:10283000DFFB012001F0DCFB022001F0D9FB0320CB
:1028400001F0D6FB00F090F801BD80B5954801F08D
:102850003DFC0FF25D11672000F0F9FB0FF24D21F6
:10286000102000F0F4FB01BD80B5642344F6206223
:102870000321002000F0AAF9642344F62062042119
:10288000002000F0A3F9642344F620620521002013
:1028900000F09CF9642344F620620621002000F039
:1028A00095F9594802780021002000F011F85948A4
:1028B000B0F9002012B20021242001F018FA5E487D
:1028C000B0F9002012B20021342001F010FA01BD4D
:1028D00070B504000D001600F6B2012E32D124B2FC
:1028E000002C02D42DB2002D16D500220321002089
:1028F00000F031FA24B222000421002000F02BFA6B
:1029000000220521002000F026FA2DB22A0006211F
:10291000002000F020FA15E024B22200032100205C
:1029200000F019FA00220421002000F014FA2DB260
:102930002A000521002000F00EFA002206210020C6
:1029400000F009FA70BD80B56623642200210120E1
:1029500000F03CF901BD10B50400A4B22200002132
:10296000012000F0F8F910BD80B50021002001F031
:102970005CFB0021012001F058FB0021022001F046
:1029800054FB0021032001F050FB01BD80B5012163
:10299000002001F04AFB0121012001F046FB01214A
:1029A000022001F042FB0121032001F03EFB01BDAA
:1029B00038B500243C4805683B485FF0FF310160B2
:1029C0001D2004000120A040054201D001F0B4FB0D
:1029D00031BD000000E100E0C00EFF1F1C7103408C
:1029E0007026FF1F500CFF1F7226FF1F7626FF1F49
:1029F0007426FF1F540CFF1F580CFF1F5C0CFF1F99
:102A000000007A44520CFF1F4D0CFF1FBC25FF1F16
:102A10004C640000480CFF1F586400004E0CFF1F60
:102A2000646400006826FF1F706400006E26FF1FAC
:102A30007C640000886400004A0CFF1F9A999999F1
:102A40009999B93F9999B9BF492500007D26FF1F83
:102A50001822FE437E26FF1F1C22FE437F26FF1FF7
:102A60002022FE438026FF1F2422FE438126FF1FD3
:102A700003010A00D15E00000C71034000408F404A
:102A800065270000C4640000CC640000D46400002A
:102A900094640000A0640000AC640000DC640000EA
:102AA000440CFF1FC40EFF1FA090044080B501F02E
:102AB00069FB01BD38B504000D0064B2002C03D0E1
:102AC000022C66D049D380E0DFF8CC04006850F0D7
:102AD0008070DFF8C41408606DB2002D0BD0022D99
:102AE00015D00ED3042D1ED017D3062D27D020D3FA
:102AF000072D2AD02FE04FF48061412000F094FF91
:102B00002AE04FF44071042000F08EFF24E04FF4DF
:102B10004071052000F088FF1EE04FF44071062050
:102B200000F082FF18E04FF44071072000F07CFFB6
:102B300012E04FF48061652000F076FF0CE04FF466
:102B40008061662000F070FF06E04FF4806167202E
:102B500000F06AFF00E038E037E0DFF83C0400688E
:102B600050F00070DFF8301408606DB2002D02D014
:102B7000012D06D00BE04FF440710C2000F054FF03
:102B800006E04FF440710D2000F04EFF00E01CE025
:102B90001BE0DFF80804006850F08070DFF8FC13D9
:102BA00008606DB2002D02D0012D06D00BE04FF46D
:102BB00040710A2000F038FF06E04FF440710B200E
:102BC00000F032FF00E000E0FFE731BD2DE9F84FF3
:102BD00004000D0016001F0064B2002C0ED064B279
:102BE000012C02D064B2022C02D16DB2022D05DBA1
:102BF00040F28511DFF8A80301F083FB290049B2F8
:102C0000200040B2FFF756FFDFF8980300684FF44A
:102C10007A71484380465FEA1840B0FBF6F081467F
:102C2000002082461FFA89F959FA0AF0012802DBCE
:102C30001AF1010AF6E75FFA8AFABAF1080F05D32A
:102C40004FF4D071DFF8580301F05BFB38FA0AF05B
:102C5000B0FBF6F0814664B2DFF84C031FFA89F945
:102C600040F8249064B2002C03D0022C19D00CD36D
:102C700022E01FFA89F919F1010000FB07F04FF477
:102C80007A71B0FBF1F0834616E01FFA89F919F169
:102C9000010000FB07F04FF47A71B0FBF1F08346BE
:102CA0000AE01FFA89F919F1010000FB07F064211D
:102CB000B0FBF1F08346FFE76DB264B2DFF8EC02DF
:102CC00050F8240010EBC5006DB264B2DFF8DC12DE
:102CD00051F8241011EBC501C96831F00401C1603D
:102CE0006DB264B2DFF8C40250F8240010EBC500E6
:102CF0002821C16064B2DFF8B40250F824005FFA02
:102D00008AFA1AF0070151F00801016064B2DFF895
:102D10009C0250F824001FFA89F9C0F8089064B2A8
:102D2000DFF8880250F824000021C1646DB264B25B
:102D3000DFF8780250F8240010EBC5001FFA8BFB77
:102D4000C0F810B064B2DFF8640250F8240000212B
:102D50004160BDE8F18F2DE9F04104000D0016003F
:102D60005FF0000864B2002C0ED064B2012C02D0D7
:102D700064B2022C02D16DB2022D05DB4FF4F37167
:102D8000DFF81C0201F0BDFA64B2002C03D0022C63
:102D900015D00AD31CE0B6F57A7F05D94FF4F67149
:102DA000DFF8FC0101F0ADFA12E0B6F57A7F05D943
:102DB0004FF4F871DFF8E80101F0A3FA08E0652E9E
:102DC00005D34FF4FA71DFF8D80101F09AFAFFE762
:102DD00064B2DFF8D40150F82400804664B2002CBD
:102DE00003D0022C15D00AD31CE018F1010000FB1F
:102DF00006F04FF47A71B0FBF1F0070012E018F121
:102E0000010000FB06F04FF47A71B0FBF1F007000F
:102E100008E018F1010000FB06F06421B0FBF1F0BE
:102E20000700FFE76DB264B2DFF8800150F82400BC
:102E300010EBC5000761BDE8F08110B5040064B275
:102E4000012C07D064B2022C04D040F2DB2154489C
:102E500001F057FA64B22000012802D0022811D0F4
:102E600021E04D48006850F000704B4908604FF475
:102E7000E0610C2000F0D8FD4FF4E0610D2000F07F
:102E8000D3FD15E04548006850F080704349086064
:102E90004FF4C0610A2000F0C7FD4FF4C0610B2061
:102EA00000F0C2FD04E040F213313D4801F029FA80
:102EB00064B23E4850F82400406D50F0040064B203
:102EC0003A4951F82410486564B2384850F8240053
:102ED000D0F8800050F0080064B2344951F8241052
:102EE000C1F8800064B2314850F824000021C16468
:102EF00064B22E4850F824004FF6FF71816064B22E
:102F00002A4850F82400D0F8800050F0010064B244
:102F1000264951F82410C1F8800064B2234850F8C3
:102F20002400406D50F0010064B2204951F8241093
:102F3000486564B21D4850F824000021416010BD6E
:102F400038B5040064B2012C07D064B2022C04D05E
:102F50004FF44C71124801F0D4F964B2134850F8A0
:102F6000240040680500280000B232BD10B50400FE
:102F700064B2012C07D064B2022C04D040F23E317E
:102F8000074801F0BEF964B2084850F82400002157
:102F9000416010BD000000003C80044030800440CF
:102FA000D45F0000C00EFF1FA80EFF1F180BFF1FED
:102FB00038B504000D00002D03D12221174801F07F
:102FC000A0F91748006850F400001549086015483A
:102FD0000021016064B2200113496A1E425064B2AC
:102FE000114810EB0410C06850F0010064B20E49A3
:102FF00011EB0411C86064B20B4810EB0410806838
:103000004008400064B2084911EB0411886064B2C2
:10301000054810EB04100321816031BD8861000078
:103020003C800440007003400071034010B5040070
:103030004FF4007094FBF0F101FB1041002903D024
:103040001E210B4801F05DF90A48046010BD38B537
:1030500004000D00074800680749884203D030216A
:10306000034801F04EF964B2034840F8245031BDE2
:103070002862000008ED00E00000FF1F002840F17A
:103080000780F446404200F003F850F000406047EB
:103090000AD0B0FA80F18840D1F19D01C90502063D
:1030A00072F1004241EB102070470000FF2212EA4B
:1030B000D05C1DBF12EAD153944593422BE09C444F
:1030C000D30780EA01021A4043EA002043EA0121C3
:1030D000A1FB0030410038BF40007CF17F010BDBD9
:1030E000FE294ADA5B0842EAC15153EA006373F1F0
:1030F000004C51EB10207047D1F1080CDCF120019D
:103100002FDB5B0810FA01F10B4373F1004120FA49
:103110000CF05041704794451CBF02EAD1539342D2
:1031200080EA010202F000421DD0400019D049009F
:1031300017D05BB9634514D00902B1FA81F3994005
:10314000BCEB030CC00140F00040C1E70002B0FA44
:1031500080FC10FA0CF0B3EB0C0CC90141F00041FB
:10316000B6E71000704740000AD0490008D010F1BF
:10317000807F94BF11F1807F02E042F0FF407047F2
:10318000D043704790EA010F44BF81F0004101F045
:103190004BB900BF421A3CBF801A89184FF0004C4F
:1031A000C0F3C752FF2A24D0C1F3C75313B3D21AB6
:1031B000D2F1190327DD4CEA01214CFA03F321EA8D
:1031C0000303D140C20D4CEA0020401834BF20EA6E
:1031D0000C004CEA5000D20553EA006373EB0C0C70
:1031E00052EB1020420012F1807F38BF7047C00DB3
:1031F000C0057047490212BF9A4200EB5120F8E720
:10320000D2F11703D9D5704710B5FF2313EAD05474
:103210001DBF13EAD1529C429A4239E0A41ADA0740
:1032200080EA0103134042EA012142EA0020421AE7
:103230003CBF641E01EB4202090AB2FBF1FE01FB36
:103240001E221202B2FBF1F001FB10226EF30F20DE
:103250001202B2FBF1FE4EEA00207F3406DDFE2CA6
:1032600024DA53EA500050EBC45010BDD4F10204EC
:1032700001FB1E2240F08071192C1DDC21FA04F0A4
:10328000C4F12004A140114371F10042584110BD26
:103290009C421ABF03EAD1529A420FE080EA010E23
:1032A0000EF00043400004D0490016D143F0FF4027
:1032B00010BD490008BFD343180010BD9C4205D182
:1032C000D21AF7D001F00041484010BD4A0212BFA7
:1032D0000846484000F0004010BD4AB90902B1FA62
:1032E00081F2914044B1A418C00140F000409EE733
:1032F000C90141F0004152420002B0FA80F4A040FE
:10330000141B94E74100090E7F3915D4D1F11F0138
:1033100014D4400007D2C00140F00040C84048BF6C
:103320006FF000407047C00140F00040C8404CBF03
:103330004FF00040404270470020704700424FF07D
:10334000004058BFC043704770B504000D00160020
:103350002A003100200001F0D3F8200070BD0000E9
:1033600010B440B24109DFF8E822012310F01F0435
:10337000A34042F8213010BC70472DE9F843040007
:103380000D0064B2002C08D0022C2CD018D3042CD1
:103390004FD03BD3052C5FD071E0DFF8B802006856
:1033A00050F48060DFF8AC1208604FF44071662082
:1033B00000F03AFB4FF44071672000F035FB5EE00F
:1033C000DFF89002006850F40060DFF888120860AF
:1033D0004FF44071432000F027FB4FF4407144202C
:1033E00000F022FB4BE0DFF86C02006850F48050E4
:1033F000DFF8601208604FF44071632000F014FBA6
:103400004FF44071622000F00FFB38E0DFF8440217
:10341000006850F40050DFF83C1208604FF440712F
:10342000502000F001FB4FF44071512000F0FCFAF5
:1034300025E0DFF82402006850F48060DFF81812FD
:1034400008604FF440714E2000F0EEFA4FF44071E6
:103450004F2000F0E9FA12E0DFF8FC01006850F4B8
:103460000060DFF8F41108604FF44071892000F02B
:10347000DBFA4FF44071882000F0D6FAFFE764B21F
:10348000DFF8D80150F82400C07810F0F30064B2DF
:10349000DFF8C81151F82410C87064B2DFF8BC011D
:1034A00050F8240064B2DFF8B41151F82410897880
:1034B000817064B2002C02D064B2012C07D1DFF815
:1034C000A00100684FF47A714843814606E0DFF8B6
:1034D000940100684FF47A71484381462801B9FB92
:1034E000F0F00600B6B2B6F5005F02D341F6FF7009
:1034F0000600B9FBF5F0B6B2B0EB06100700BFB29C
:10350000202F03D3DC21584800F0FBFE64B253485F
:1035100050F82400007810F0E0008046B6B2300A7F
:1035200010F01F0050EA080064B24C4951F8241012
:10353000087064B2494850F82400467064B24748A5
:1035400050F82400807A10F0E000804664B24348CE
:1035500050F8240017F01F0151EA0801817264B28B
:103560003E4850F82400007C50F0880064B23B498B
:1035700051F82410087464B2384850F82400C07818
:1035800050F00C0064B2354951F82410C870BDE801
:10359000F18340B2314A52F8202012799206F8D5D0
:1035A00040B22E4A52F8202092F907200A70704744
:1035B00040B22A4A52F8202012791206F8D540B2B9
:1035C000264A52F82020D1717047010049B22348A1
:1035D00050F82100807D002801D0012000E000206B
:1035E000704770B504000D0016003000461E00281C
:1035F00008D095F9001049B2200040B2FFF7D8FF7B
:103600006D1CF2E770BD38B504000D002878002865
:1036100008D095F9001049B2200040B2FFF7C8FF6A
:103620006D1CF3E731BD10B5040064B20B4850F8CF
:103630002400C07850F0200064B2084951F82410EA
:10364000C87064B260002D3040B2FFF789FE10BD33
:1036500000E100E03480044028800440940BFF1F08
:10366000B80EFF1FC00EFF1F346100002DE9F04FA0
:10367000814692469B46099E504659460022354B4C
:10368000FDF79EFEFDF7C0FF070000240025012086
:103690008046F6B25FFA88F846451FD3002F09D15D
:1036A000F6B25FFA88F8B6EB08002B49097800F803
:1036B00009100DE00A21F6B25FFA88F8B6EB0800AF
:1036C00097FBF1F201FB1271234A895C00F80910A3
:1036D0000A2097FBF0F718F10108DAE7F6B22E207E
:1036E00006F809000020070054465D460120804688
:1036F0009DF828005FFA88F8404520D30022174B38
:1037000020002900FDF78AFDFDF77EFF07000A2152
:103710005FFA88F858FA86F097FBF1F201FB127114
:103720000D4A895C00F8091022002B0000200B498B
:10373000FDF774FD04000D0018F10108D8E79DF8AD
:103740002800F6B216EB0901401800214170BDE8CF
:10375000F08F00000000F03F240CFF1F0000244009
:103760007EB40024002302000A2592FBF5F605FB37
:1037700016253035E4B200AEA5550A2592FBF5F2C8
:10378000641C012AF0DAE4B2012C09D3E4B200ADE2
:10379000651915F9015CDBB25D545B1C641EF2E730
:1037A000DBB200255D5477BC704700005FF0FF0C72
:1037B0001CEAD05114BF614506E0C110400721F05A
:1037C000E04101F16051704779B900F00041000219
:1037D0000AD0B0FA80FC00FA0CF001F16051A1EBC4
:1037E0000C5101EBD0214005704741020CBF40F461
:1037F000E0016FF000010020704700004FEAF17C0B
:10380000BCF1E04C2CBFBCF5001F11E05FEA4C0C92
:1038100034BFBCF17F5F2EE05FEA9C0C4FEA0C1CCA
:103820004FEA3C0CC10071F100414CEB5070704705
:10383000C90241EA5051C00218BF41F0010141F0F4
:1038400000414FEA6C50C0F10900212810D240EA33
:10385000CC7CCCF1200C11FA0CF070F10040CCF1D2
:10386000200C21FA0CF00CF0004C40EB0C007047DF
:103870004FEACC707047490011F5001F04D84FEA99
:10388000CC10FF30C0057047C817704770B50400F2
:103890000D0016004FF480712000C0B200F0C4F893
:1038A0006DB2002D11D1E4B260115D4951F82000D4
:1038B000E4B261115A4A52F821104969012214F008
:1038C0001F039A409143416136E0E4B260115449CC
:1038D00051F82000E4B26111514A52F821104969AF
:1038E000012214F01F039A4011434161F6B2002EE9
:1038F00011D1E4B260114A4951F820000068012159
:1039000014F01F0291408843E4B26111444A52F816
:103910002110086010E0E4B26011414951F8200024
:103920000068012114F01F0291400843E4B26111C4
:103930003B4A52F82110086070BD38B504000D00F4
:10394000E4B26011364951F82000406914F01F01BB
:10395000C840C00703D46321324800F0D2FCEDB266
:10396000002D11D1E4B260112D4951F820000068FA
:10397000012114F01F0291408843E4B26111284AEA
:1039800052F82110086010E0E4B26011244951F8A7
:1039900020000068012114F01F0291400843E4B2A6
:1039A00061111F4A52F82110086031BD10B50400A2
:1039B000E4B260111A4951F82000406914F01F0167
:1039C000C840C00703D47B21164800F09AFCE4B23B
:1039D0006011134951F82000012114F01F02914099
:1039E000C16010BD10B50400E4B260110C4951F87B
:1039F0002000406914F01F01C840C00703D58C2186
:103A0000084800F07EFCE4B26011054951F820003E
:103A1000006914F01F01C84010F0010010BD000043
:103A2000240BFF1FE060000010B4294A12684FF415
:103A30000073C0B24409A3401A43254B1A60C0B2B8
:103A40004211244B53F82220012310F01F04A340FD
:103A5000C2F8A030C0B210F01F02C0B243111D4C1A
:103A600054F8233043F8221010BC704710B4184AA1
:103A700012684FF40073C0B24409A3401A43144BB8
:103A80001A60C0B24211134B53F82220012310F0E8
:103A90001F04A340C2F8A03031F4E061C0B210F0BE
:103AA0001F02C0B243110B4C54F8233053F82220AC
:103AB00012F4E0621143C0B210F01F02C0B2431111
:103AC000044C54F8233043F8221010BC7047000017
:103AD00038800440800BFF1F002808D04FF4E162BB
:103AE00011000A00511E002AFBD1401EF4E7704766
:103AF00038B5040001219820FFF71FFF00200500C2
:103B0000EDB2082D17D2E4B214FA05F0000604D580
:103B100001218B20FFF711FF03E000218B20FFF72D
:103B20000CFF00218A20FFF708FF01218A20FFF700
:103B300004FF6D1CE4E731BD38B504000021982076
:103B4000FFF7FBFE00200500EDB2082D17D2E4B20E
:103B500014FA05F0000604D501218B20FFF7EDFED5
:103B600003E000218B20FFF7E8FE00218A20FFF709
:103B7000E4FE01218A20FFF7E0FE6D1CE4E731BD81
:103B800038B504000D00B5F15000C0B2FFF7D4FF06
:103B9000E4B2200950F01000C0B2FFF7CDFF14F0DE
:103BA0000F0050F00100C0B2FFF7C6FF31BD70B585
:103BB000040000200500EDB2082D17D2B5F1500029
:103BC000C0B2FFF7B9FF0120FFF7B6FF1020FFF7E3
:103BD000B3FF00200600F6B2802E05D22000C0B24E
:103BE000FFF786FF761CF6E76D1CE4E770BD80B535
:103BF000012201218A20FFF749FE012201218B20A9
:103C0000FFF744FE012201218C20FFF73FFE012235
:103C100001219820FFF73AFE01218A20FFF78DFE4F
:103C200000218C20FFF789FE3220FFF755FF01218C
:103C30008C20FFF782FEAE20FFF77EFF0020FFF70B
:103C40007BFF1020FFF778FF4020FFF775FF8120F2
:103C5000FFF772FFCF20FFF76FFFA120FFF76CFF88
:103C6000C820FFF769FFA620FFF766FFA820FFF72F
:103C700063FF3F20FFF760FFD320FFF75DFF0020C9
:103C8000FFF75AFFD520FFF757FF8020FFF754FFBB
:103C9000D920FFF751FFF120FFF74EFFDA20FFF7A1
:103CA0004BFF1220FFF748FFDB20FFF745FF4020C6
:103CB000FFF742FF2020FFF73FFF0220FFF73CFF06
:103CC0008D20FFF739FF1420FFF736FFA420FFF700
:103CD00033FFA620FFF730FFAF20FFF72DFF0020B6
:103CE000FFF765FF00210020FFF74AFF01BD2DE926
:103CF000F84F82468846934600208DF800005FF01A
:103D00000009002401260A270FFA8BFBBBF1000FE4
:103D100006D50FFA8BFBDBF1000B01208DF80100BB
:103D20000FFA8BFBBBFBF7F00500ADB2002D03D003
:103D3000761C0A204743F3E7F6B2012E03D1DFF8E1
:103D4000A80280F800B0F6B2022E11D10FFA8BFB58
:103D50000A209BFBF0F100FB11B0DFF88C124870D9
:103D60000FFA8BFB0A209BFBF0F0DFF87C12087047
:103D7000F6B2032E20D10FFA8BFB0A209BFBF0F149
:103D800000FB11B0DFF8601288700FFA8BFB0A207D
:103D90009BFBF0FB0FFA8BFB0A209BFBF0F100FB77
:103DA00011B0DFF8441248700FFA8BFB0A209BFB1E
:103DB000F0F0DFF834120870F6B2042E2FD10FFAAB
:103DC0008BFB0A209BFBF0F100FB11B0DFF818120F
:103DD000C8700FFA8BFB0A209BFBF0FB0FFA8BFBE2
:103DE0000A209BFBF0F100FB11B0DFF8FC1188709A
:103DF0000FFA8BFB0A209BFBF0FB0FFA8BFB0A20D0
:103E00009BFBF0F100FB11B0DFF8DC1148700FFAFA
:103E10008BFB0A209BFBF0F0DFF8CC110870F6B2A8
:103E2000052E3ED10FFA8BFB0A209BFBF0F100FB25
:103E300011B0DFF8B41108710FFA8BFB0A209BFB5D
:103E4000F0FB0FFA8BFB0A209BFBF0F100FB11B09B
:103E5000DFF89411C8700FFA8BFB0A209BFBF0FB74
:103E60000FFA8BFB0A209BFBF0F100FB11B0DFF88F
:103E7000781188700FFA8BFB0A209BFBF0FB0FFA7E
:103E80008BFB0A209BFBF0F100FB11B0DFF858110F
:103E900048700FFA8BFB0A209BFBF0F0DFF848110B
:103EA00008709DF80100012824D15FFA8AFABAF15E
:103EB0007F0F03D30020824618F101084146C9B2A2
:103EC0005046C0B2FFF75CFE002081465FFA89F9D8
:103ED000B9F1060F0CD25FFA89F9DFF8100119EB7E
:103EE000000090F84E00FFF703FE19F10109EDE71D
:103EF0001AF1080A002005003000C0B2ADB280B24D
:103F0000854231D2E4B2DFF8E000205C10308DF859
:103F100000005FFA8AFABAF17F0F03D300208246CD
:103F200018F101084146C9B25046C0B2FFF728FE59
:103F3000002081465FFA89F9B9F1060F0FD25FFAC6
:103F400089F99DF800000621DFF8A02001FB002080
:103F500019F80000FFF7CCFD19F10109EAE71AF1A1
:103F6000060A641C6D1CC7E7BDE8F18F2DE9F84314
:103F700004000D00160000275FF000085FF0000944
:103F80005FFA89F919F8060000282AD05FFA89F942
:103F900019F8060020380700E4B27F2C02D3002075
:103FA00004006D1C2900C9B22000C0B2FFF7E8FD73
:103FB000002080465FFA88F8B8F1060F0DD25FFA4C
:103FC00088F8FFB20620094900FB071018F8000026
:103FD000FFF78EFD18F10108ECE7A41D19F10109A6
:103FE000CEE7BDE8F18300007A26FF1FCC57000022
:103FF00010B5040064B2042C07DA0122012164B276
:104000002548205CFFF742FC0EE00420040020005D
:10401000441E40B2002807D00122012164B21E488C
:10402000205CFFF733FCF2E710BD38B504000D004B
:1040300064B2042C07DA2900C9B264B21648205CC5
:10404000FFF77BFC0EE0042004002000441E40B279
:10405000002807D02900C9B264B20F48205CFFF7DE
:104060006CFCF2E731BD10B5040064B2042C05DA33
:1040700064B20948205CFFF799FC0CE004200400BE
:104080002000441E40B2002805D064B20248205CE3
:10409000FFF78CFCF4E710BDAC0BFF1F10B440B26F
:1040A00041097A4A012310F01F04A34042F821304D
:1040B00010BC704710B440B24109754A012310F09A
:1040C0001F04A34042F8213010BC704710B5040013
:1040D0007048046000F081F80028FBD000F002F87E
:1040E000002010BDE0B5012002904FF41670019041
:1040F000002000901B23674802686749002000F0F9
:1041000061FA66480068400840006449086057202A
:10411000FFF7D0FF6248006850F001006049086076
:104120000020FFF7BBFF5F491B20FFF77DFC5E49C6
:104130001D20FFF779FC07BD80B55C4890F90000B1
:10414000042818D15948032101705720FFF7B2FF06
:1041500057485FF0006101605048006850F001006E
:104160004E49086052485FF000610160514849497A
:104170000968016005E05720FFF79CFF4B480221CA
:10418000017001BD4948012101704548006850F0A7
:10419000010043490860704780B54448042101701C
:1041A00043485FF0FF3101605720FFF777FF3F483A
:1041B00090F9000001280FD03C4890F90000022837
:1041C000F5D13A480421017039485FF0FF310160B0
:1041D0005720FFF763FFEAE701BD10B582B0002466
:1041E00000208DF8000000F00EFB8021122000F06E
:1041F0001DFC002804D1304800F0AAFC002043E058
:10420000322000F0D2FC0B22012100A800F046FC75
:10421000002804D1294800F09BFC002034E09DF8E0
:104220000010274800F094FC26480178264800F04A
:104230008FFC9DF80000212825D100200400214892
:104240000078A4B280B2844218D2A4B21F4810EB06
:1042500044004178A4B21D4810F8140080B200F068
:10426000E5FB002808D1A4B2184810F8141018482B
:1042700000F06EFC002007E0641CE0E7154800F049
:1042800067FC012000E0002016BD000000E100E016
:1042900080E100E0B40EFF1F50F00F400C800040A2
:1042A000248000400201020012010900B00BFF1F30
:1042B000A090044010900040986300003864000013
:1042C00000630000180CFF1F78630000B40BFF1F91
:1042D000B063000024630000DFF800F0110DFF1F41
:1042E000DFF800F0410DFF1FBFF34F8F4648006815
:1042F00010F4E0604549084343490860BFF34F8F1D
:10430000FEE738B504000D000020FFF771FE2A001B
:1043100021003F4800F01CFC0020FFF7A4FE4FF4F2
:104320007A7000F042FCF2E738B504000D0021007D
:1043300049B20420FFF73CF9200032BD10B500243B
:10434000042000F049FC042000F07CFC002841D14E
:104350000020FFF74DFE042000F074FC012801D17D
:10436000012004000020FFF77EFE2A4800F0F0FB49
:104370004FF4FA7000F019FCE4B2012CEBD10420E8
:1043800000F060FC0028E6D1042000F05BFC00286F
:1043900006D10020FFF767FE642000F006FCF3E77B
:1043A000042000F04FFC012806D10020FFF75BFE3F
:1043B000322000F0FAFBF3E7174800F0C9FBFFF7E3
:1043C0008BFF642000F0F1FB0020FFF789FFFFF76F
:1043D0008BFFC0E710BD10B5104804680120FFF73F
:1043E00007FE0120FFF73FFEE4B20F200C4900FB5F
:1043F0000412E4B221000B4800F0AAFB4FF47A70DB
:1044000000F0D3FBEDE700000CED00E00400FA053E
:10441000DC620000246400005863000004ED00E04A
:104420001004FF1F74620000431A4FF000423EBFA9
:104430005340C01AC91800BFD3095FEAD05C13EB20
:10444000400F34BFB3EB410F40E07CEBD1530CD3B2
:1044500042EA012122D8D1EB402009D3400A28BFEB
:104460005FEA500140EBCC507047401A15D0400233
:10447000B0FA80F2521C9040400A4FEA3C23B3EB62
:10448000026384BF00EB730007E040F400001A16DB
:10449000DB07C2F10102D04018437047182BFCDC47
:1044A00031FA03F202FA03F3591A38BF42F001025B
:1044B000D2EB40203CBF4000ACF1010C5FEACC5C89
:1044C000C20572F100414CEB5020704713EB400FD6
:1044D0000FD24B0009D0ACEBD153022B03DB4902C6
:1044E000172BDDDD70479143401A4300D5D10020E2
:1044F000704713EB410FD0D36FF0000070470000FE
:1045000062F30F2262F31F42401810F0030308D039
:10451000C91A1FD3DB0748BF00F8012D28BF20F8B8
:10452000022D130030B414461546103928BF20E977
:104530003C00FAD8490728BF20E90C0048BF40F8E2
:10454000042D890028BF20F8022D48BF00F8012D56
:1045500030BC7047C91818BF00F8012DCB0728BF21
:1045600000F8012D704700002DE9F84380460C004B
:104570005FEA981010F00700C0B25FEA40194046A9
:10458000103810F03F00C0B2C000050015EB090064
:104590000700E4B217EBC400401E0600F6B2FFB2FB
:1045A000BE420DD3002200213800C0B2FFF76EF9E1
:1045B0004FF481713800C0B2FFF736FA7F1CEDE787
:1045C000BDE8F1832DE9F84F04000D0016001F002F
:1045D0009DF92880DDF82C90DDF830A04FFA88F89E
:1045E000B8F1000F02D15FF0010B11E04FFA88F82B
:1045F000B8F1010F02D15FF0020B09E04FFA88F821
:10460000B8F1020F02D15FF0040B01E05FF0100B74
:104610004FFA88F8B8F1000F05D16748854202D3F8
:104620006648A84221D24FFA88F8B8F1010F09D1A3
:104630006148854206D36248A84203D315F00300BF
:10464000032812D14FFA88F8B8F1020F09D15A485D
:10465000854206D35B48A84203D315F00300002827
:1046600003D061215848FFF74CFEB9F5004F03D342
:1046700063215548FFF745FE5448006850F002009A
:10468000524908605248006850F0020050490860E2
:1046900064B260014F49455064B2600100F180404E
:1046A00010F51040066164B2600100F1804010F521
:1046B00010400021818064B2600100F1804010F55B
:1046C00010405FFA8BFBA0F814B04FFA88F85FEA4D
:1046D000082010F4E0604FFA88F818F0070108434A
:1046E00064B2610101F1804111F51041C88064B2EA
:1046F000600100F1804010F5104049464904490C22
:10470000C18264B2600100F1804010F5104049465A
:104710004904490CC1833048006830F080002E49BC
:10472000086064B2600100F1804010F510405FFA4B
:104730008BFBC0F808B064B2600100F1804010F556
:1047400010400021C1605046C00702D4D9F10000DA
:1047500000E0002064B2610101F1804111F51041D7
:10476000886164B2600100F1804010F510404CF2A5
:104770000A018183FFB27809313050F0800064B2C1
:104780001649605416493800C0B2FFF74DF9594632
:10479000C9B22800FFF7E8FE124800680121A140D5
:1047A000884310490860104800680121A14008436F
:1047B0000D490860BDE8F18F10F00F4013F10F4074
:1047C00012F10F4010F10F40D8610000408004400A
:1047D0003C800440009000400080004000100240F7
:1047E000000101000C8000402480004001B4BDF8AD
:1047F0000000002805D0BDF80000401EADF8000004
:10480000F5E701B0704780B5012201211A20FFF7BA
:104810003DF8012201211920FFF738F823211A2041
:10482000FFF724F923211920FFF720F901BD80B5F6
:104830007A48012101607A48012101604FF4C87073
:10484000FFF7D4FF7748002101607748006800280F
:1048500004D1744801210160002016E07148012153
:1048600001606E48002101604FF4C870FFF7BEFF81
:104870006B48002101606C480068002804D069483A
:1048800001210160002000E0012002BD80B56448E4
:10489000002101606148002101604FF4C870FFF7FA
:1048A000A5FF5F48012101604FF4C870FFF79EFF2C
:1048B0005A48012101604FF4C870FFF797FF01BD0E
:1048C00080B55748002101604FF4C870FFF78EFF94
:1048D0005248002101604FF4C870FFF787FF50482D
:1048E000012101604FF4C870FFF780FF4C480021A0
:1048F00001604FF4C870FFF779FF01BD80B54848EB
:10490000002101604FF4C870FFF770FF4348012198
:1049100001604FF4C870FFF769FF41480121016051
:104920004FF4C870FFF762FF3D48002101604FF46B
:10493000C870FFF75BFF01BD80B5394800210160F9
:104940003848002101604FF4C870FFF74FFF34482A
:10495000012101604FF4C870FFF748FF324800683A
:10496000002807D02F48012101602D480021016057
:10497000002006E02B480121016029480021016048
:10498000012002BD38B5050008242000441EC0B235
:10499000002818D0280603D520480121016002E034
:1049A0001E48002101606D004FF4C870FFF71EFF24
:1049B0001B48012101604FF4C870FFF717FF18482A
:1049C00000210160E1E731BD38B508240025154814
:1049D000002101602000441EC0B2002815D06D00E7
:1049E0000F48002101604FF4C870FFF7FFFE0C482C
:1049F000012101604FF4C870FFF7F8FE0A48006813
:104A00000028E7D055F00105E4E7064801210160E0
:104A1000034800210160EDB2280032BD6400FE436E
:104A20006800FE43E402FE436402FE4370B50400E6
:104A30000D0000262900C9B2200080B200F00AF85B
:104A4000002805D1761CF6B2142EF3D1002000E028
:104A5000012070BD38B504000D00FFF7E8FE002806
:104A600001D1002019E04220FFF78CFFFFF764FF1F
:104A7000002803D1FFF70AFF00200EE02000C0B29B
:104A8000FFF780FFFFF758FF2800C0B2FFF77AFF5B
:104A9000FFF752FFFFF7FAFE012032BDF8B5040020
:104AA0000D00160000273200D2B2290089B2200082
:104AB00000F00AF8002805D17F1CFFB21E2FF2D1AA
:104AC000002000E00120F2BD70B504000D001600CA
:104AD000FFF7ADFE002801D1002037E04220FFF7AC
:104AE00051FFFFF729FF002803D1FFF7CFFE002079
:104AF0002CE03000C0B2FFF745FFFFF71DFFFFF7C6
:104B0000C5FEFFF794FE002801D100201EE04320DF
:104B1000FFF738FFFFF710FF002803D1FFF7B6FEBD
:104B2000002013E0ADB2002D0DD0FFF74DFF207037
:104B3000ADB2012D02D1FFF7E1FE01E0FFF7C0FEAB
:104B4000641C6D1EEEE7FFF7A1FE012070BD0000A2
:104B50000EB400B582B003A9009100AB024601215A
:104B6000034878440A30FBF757FC06BC5DF810FB9D
:104B70009118000010B50400002C15D0B4F1807F0E
:104B800003D329210F48FFF7BCFB0F480021016028
:104B90000E4804600E48002101600B4805210160A9
:104BA00009480068C003FBD510BD10B50400200003
:104BB000441E002804D007480068FFF7DBFFF6E733
:104BC00010BD00003860000010E000E014E000E0DC
:104BD00018E000E0B80EFF1F10B5040064B2082C06
:104BE0000DDA0022002164B22148205CFEF74EFE5F
:104BF000032164B21E48205CFEF738FF14E0082051
:104C000004002000441E40B200280DD000220021E4
:104C100064B21748205CFEF739FE032164B21448E1
:104C2000205CFEF723FFECE710BD10B5040064B272
:104C30000F48205CFEF7D6FE002801D1002000E0DE
:104C4000012010BD10B50400200040B2FFF7EDFFB9
:104C500000280AD10A20FFF7A8FF200040B2FFF782
:104C6000E4FF002801D1002000E0012010BD000079
:104C70001C0CFF1F80B500F001F801BD70B50026C7
:104C8000DFF8F00600210170DFF8EC06002101706A
:104C90003B200400E4B2292C20D3DFF8E006008892
:104CA00040F28A21884217D3E4B25020DFF8D016B0
:104CB00000FB0410807E00280ED1E4B25020DFF803
:104CC000C01600FB0410B0F5BB700078FF2803D1BC
:104CD000DFF8A00601210170641EDBE73B20040021
:104CE000E4B2292C21D3DFF89406008840F28A210F
:104CF000884218D3E4B25020DFF8841600FB041079
:104D000090F8360000280ED1E4B25020DFF870167B
:104D100000FB0410B0F5AD700078FF2803D1DFF878
:104D2000580601210170641EDAE7DFF858060021F9
:104D30000170DFF8540600210170DFF850060021F1
:104D400001703B200400E4B2062C11D3E4B25020E1
:104D5000DFF82C1600FB04100078FF2808D1DFF8DC
:104D60002C060078401CDFF824160870641EEAE761
:104D700001200500EDB2502D48D2EDB2DFF80C064F
:104D8000002129543B200400E4B2062C14D3EDB2D8
:104D9000E4B25020DFF8E81500FB0410285CFF287F
:104DA0000AD1EDB2DFF8E405285C401CEDB2DFF873
:104DB000DC156854641EE7E7EDB2DFF8D005285C27
:104DC000EDB2DFF8C815691811F8011C401A002867
:104DD00006D4DFF8B0050078401CDFF8A81508708D
:104DE000EDB2DFF8A805285CEDB2DFF8A015691870
:104DF00011F8011C401A012806DADFF88C0500784A
:104E0000401CDFF8841508706D1CB3E7DFF87405EB
:104E10000078DFF874150978401A0B2849DB002068
:104E200006004F200500EDB2412D0FD3EDB2DFF8A3
:104E30005C05285CEDB2DFF85415691811F8011C07
:104E4000401A002800D4761C6D1EECE7F6B20F2E37
:104E50001DD3DFF8380590F828001E2817D200214E
:104E60000220FFF7E2F8DFF8280590F90000DFF8EC
:104E7000241511EB40004A214180DFF8100590F91C
:104E80004E00D0F13E00DFF81015087011E001214E
:104E90000220FFF7CAF8DFF8F80490F90000DFF805
:104EA000F41411EB400028214180DFF8EC041D21AF
:104EB0000170DFF8D4040078DFF8C8140978401ACC
:104EC0000B2849DB0020060001200500EDB2102D63
:104ED0000FD2EDB2DFF8B404285CEDB2DFF8AC1409
:104EE000691811F8011C401A012800DA761C6D1CA3
:104EF000ECE7F6B20F2E1DD3DFF8900490F82800EF
:104F00001E2817D200210320FFF78FF8DFF8800456
:104F100090F90000DFF87C1411EB4000052141807E
:104F2000DFF8680490F90100D0F13E00DFF8681462
:104F3000087011E001210320FFF777F8DFF8500433
:104F400090F90000DFF84C1411EB4000282141805B
:104F5000DFF844041D210170DFF8340400780400F8
:104F6000DFF8340490F900002100C9B200B209B2A0
:104F7000884280F2B880E4B2DFF8180410EB4400F5
:104F8000B0F902004E2806DBE4B2DFF8080410EBAB
:104F9000440046214180E4B2DFF8F80310EB4400FE
:104FA000B0F90200022806DAE4B2DFF8E80310EBF9
:104FB00044000A214180E4B2DFF8D80310EB44003A
:104FC00040880500EDB24D2D27D2EDB2E4B250205D
:104FD000DFF8AC1300FB0410285CEDB2E4B2502102
:104FE000DFF89C2301FB042169184978401AFF2847
:104FF0000AD1E4B2DFF8A403EDB220F81450DFF8D0
:10500000A003EDB2058008E0E4B2DFF890034FF4AE
:105010007A7120F814106D1CD4E7E4B2DFF8740341
:1050200010EB440040880500EDB2032D28D3EDB20B
:10503000E4B25020DFF8481300FB0410285CEDB206
:10504000E4B25021DFF8382301FB0421691811F87C
:10505000011C401AFF280AD1E4B2DFF84803EDB280
:1050600020F81450DFF84003EDB2058008E0E4B208
:10507000DFF83003DFF8341320F814106D1ED3E787
:10508000E4B2DFF8200330F91400DFF8201388427F
:1050900007D0E4B2C14830F914004FF47A71884265
:1050A00003D12000C0B200F026F8E4B2BB4830F9CA
:1050B0001400E4B2BB4931F914100818401C022155
:1050C00090FBF1F0E4B2B34921F81400E4B2B14826
:1050D00030F91400E4B25021A94A01FB0421012255
:1050E0004254641E3CE7B0487FF001010180AC48A7
:1050F0005121018070BD70B50600F6B2A94830F9A3
:105100001600AA49884220D1F6B2A44830F9160008
:105110004FF47A71884218D0A3480088F6B29F49AC
:1051200031F8161008189E490988401AF6B29D49B0
:1051300021F81600F6B29B4830F816009A4908800C
:105140009B480078401C9A490870F6B2954830F99F
:105150001600964988423CD0F6B2904830F91600C5
:105160004FF47A71884234D18D480088F6B28D4967
:1051700031F8161008188C490988401AF6B2874988
:1051800021F81600F6B2854830F8160084490880E8
:1051900088480078401C87490870F6B2814830F989
:1051A00016002830FCF75CFA04000D00F6B2D6F1C8
:1051B0003B00FCF755FA00227F4BFCF72FF822004A
:1051C0002B00FCF765FBFCF71FFAF6B2714921F8DA
:1051D0001600F6B2734830F916007449884222D19D
:1051E000F6B26E4830F916004FF47A7188421AD13F
:1051F000F6B26C486C49098820F81610F6B2674878
:105200006749098820F8161069480078401C6849E9
:10521000087068480078401C66490870F6B25D481E
:10522000282120F8161070BD70B50024584890F958
:1052300000000E380500584890F900002900C9B256
:1052400000B209B2884210DAEDB2524830F81500C7
:10525000D0F12800EDB2594921F81500EDB25748B8
:1052600030F8150004196D1EE5E724B2484890F99E
:1052700000000E38484991F90010401A94FBF0F0F4
:105280004F4908804E4800884E490988401A4E49C7
:1052900008804C484A49098801804948B0F9000013
:1052A000FDF7ECFE49490968FDF700FF4849FDF7A5
:1052B00069FF06004448B0F90000FDF7DFFE4549EC
:1052C0000968FDF7F3FE3100FDF75CFFFEF71AF801
:1052D0004149088040480088862802D33E488621FC
:1052E00001803D4800884A2802D23B48492101807C
:1052F000394800886738012803DB37480088673859
:1053000003E03548008867384042344931F81000DE
:10531000334908801748007801282AD116480078B8
:10532000012826D1194890F820002E2818D21748B5
:1053300090F823002E2813D2144890F826002E2827
:105340000ED2124890F82A002E2809D20F4890F861
:105350002D002E2804D20D4890F830002E2808D3B6
:105360002048027800210020FDF7B2FA1D480021F4
:10537000017070BD8426FF1F8526FF1F7826FF1F42
:105380001C11FF1F8226FF1F8326FF1FC825FF1F3A
:10539000340CFF1FCC24FF1F350CFF1F5424FF1FAC
:1053A000300CFF1FDC23FF1F320CFF1F18FCFFFF18
:1053B0007B26FF1F7C26FF1F0000E03F4425FF1FC8
:1053C0006826FF1F6C26FF1F6A26FF1F380CFF1F71
:1053D0000000CC423C0CFF1F6E26FF1F600CFF1F1D
:1053E000500CFF1F4D0CFF1FDFF800F0590EFF1F80
:1053F00040B2DFF8BC1331F8201040B20128C0F2EF
:105400007D8140B2112880F27981DFF8A823002342
:10541000137089B2312904D2DFF898230023537026
:1054200082E089B2612904D2DFF888230123537016
:105430007AE089B2912904D2DFF8782302235370ED
:1054400072E089B2C12904D2DFF8682303235370C4
:105450006AE089B2F12904D2DFF85823042353709B
:1054600062E040F2211289B2914204D2DFF8442373
:105470000523537058E040F2511289B2914204D290
:10548000DFF83023062353704EE040F2811289B2D8
:10549000914204D2DFF81C230723537044E040F20A
:1054A000B11289B2914204D2DFF808230823537065
:1054B0003AE040F2E11289B2914204D2DFF8F422DC
:1054C0000923537030E040F2112289B2914204D294
:1054D000DFF8E0220A23537026E040F2412289B22D
:1054E000914203D2B34A0B2353701DE040F2712264
:1054F00089B2914203D2AF4A0C23537014E040F2B8
:10550000A12289B2914203D2AA4A0D2353700BE023
:1055100040F2D12289B2914203D2A64A0E2353709F
:1055200002E0A44A0F23537089B21A2903D2A14A78
:10553000002393706DE089B2332903D29D4A012381
:10554000937066E089B24C2903D29A4A0223937081
:105550005FE089B2652903D2964A0323937058E02D
:1055600089B27E2903D2934A0423937051E089B211
:10557000972903D28F4A052393704AE089B2B02954
:1055800003D28C4A0623937043E089B2C92903D21F
:10559000884A072393703CE089B2E22903D2854A06
:1055A0000823937035E089B2FB2903D2814A09238D
:1055B00093702EE04FF48A7289B2914203D27D4AF1
:1055C0000A23937025E040F22D1289B2914203D252
:1055D000784A0B2393701CE089B2B1F5A37F03D204
:1055E000744A0C23937014E040F25F1289B2914226
:1055F00003D2704A0D2393700BE04FF4BC7289B252
:10560000914203D26B4A0E23937002E0694A0F2342
:10561000937089B21A2903D2664A0023D3706DE0D1
:1056200089B2332903D2634A0123D37066E089B279
:105630004C2903D25F4A0223D3705FE089B2652907
:1056400003D25C4A0323D37058E089B27E2903D287
:10565000584A0423D37051E089B2972903D2554A9E
:105660000523D3704AE089B2B02903D2514A0623F8
:10567000D37043E089B2C92903D24E4A0723D370BD
:105680003CE089B2E22903D24A4A0823D37035E0CC
:1056900089B2FB2903D2474A0923D3702EE04FF485
:1056A0008A7289B2914203D2424A0A23D37025E01A
:1056B00040F22D1289B2914203D23E4A0B23D3709D
:1056C0001CE089B2B1F5A37F03D23A4A0C23D37010
:1056D00014E040F25F1289B2914203D2354A0D23A1
:1056E000D3700BE04FF4BC7289B2914203D2314ABD
:1056F0000E23D37002E02F4A0F23D370704710B5EA
:105700000400200040B2FFF773FE2B48007810F031
:10571000FD00294908702848007850F010002649FB
:1057200008702648B821017025480078C006FBD4CF
:1057300023480078C0F38100C0B20228F8D11D4888
:10574000C3781C4882781B4841781A480078FFF7D4
:105750004BFE64B2164810EB8400807810F01F00F6
:105760001849087064B2124810EB8400C07810F039
:105770001F0050F04000144908701148007880065E
:10578000FBD50F4800784006FBD50C48007810F098
:105790003F000A4908700A480078C0F38100C0B28F
:1057A0000328F8D164B2024830F82400C0B210BD1A
:1057B000380BFF1F7C0BFF1F0140064000400640D6
:1057C0000640064004400640054006400000000038
:1057D00000000000002F0000000007000700001478
:1057E0007F147F1400242A7F2A1200626408132386
:1057F00000364955225000000503000000001C221D
:105800004100000041221C000014083E081400085A
:10581000083E0808000000A060000008080808080A
:10582000000060600000002010080402003E5149A2
:10583000453E0000427F4000004261514946002140
:1058400041454B31001814127F100027454545395A
:10585000003C4A49493000017109050300364949B5
:10586000493600064949291E00003636000000006E
:1058700056360000000814224100001414141414B9
:105880000000412214080002015109060032495962
:10589000513E007C1211127C007F49494936003E7E
:1058A00041414122007F4141221C007F4949494139
:1058B000007F09090901003E4149497A007F080833
:1058C000087F0000417F4100002040413F01007FF0
:1058D00008142241007F40404040007F020C027FBC
:1058E000007F0408107F003E4141413E007F0909CE
:1058F0000906003E4151215E007F091929460046F4
:10590000494949310001017F0101003F4040403FCA
:10591000001F2040201F003F4038403F0063140814
:1059200014630007087008070061514945430000EF
:105930007F41410000552A552A55000041417F0012
:105940000004020102040040404040400000010207
:105950000400002054545478007F484444380038F0
:105960004444442000384444487F00385454541878
:1059700000087E0901020018A4A4A47C007F08048A
:1059800004780000447D4000004080847D00007F5A
:10599000102844000000417F4000007C0418047877
:1059A000007C0804047800384444443800FC242473
:1059B00024180018242418FC007C0804040800485B
:1059C0005454542000043F444020003C4040207C7C
:1059D000001C2040201C003C4030403C004428106B
:1059E0002844001CA0A0A07C004464544C4414141F
:1059F00014141414DFF800F003430000DFF800F083
:105A0000AB4B00004D48F02101704C480078000677
:105A1000FBD54A4800787121084201D0002000E0FF
:105A20000120704780B54648006850F40020444982
:105A300008604448006850F40020424908603F482C
:105A400000780006FBD53D48F02101700A20FFF7E1
:105A5000D5FF01BD10B582B00400A4B24FF40060C0
:105A600000FB04F000903848092101709DF8020005
:105A7000364908709DF801003549087035489DF891
:105A800000100170FFF7BEFF002801D100200CE0DC
:105A9000A4B2002C08D17FF0010240F20C4120009A
:105AA00080B200F003F800E0012016BD7CB50400D0
:105AB0000D001600A4B24FF40060ADB200FB04501C
:105AC0000190ADB2042095FBF0F101FB10510029CB
:105AD00003D0EA212048FFF78DFF40F60100ADB268
:105AE000854203D3EC211C48FFF784FF9DF8060094
:105AF000164908709DF805001549087015489DF86D
:105B00000410017000969DF80300144908709DF878
:105B10000200134908709DF80100124908701248EC
:105B20009DF800100170084806210170FFF76AFF18
:105B3000002801D1002000E0012076BD00000240D5
:105B400004F0014008F00140070002400600024056
:105B500005000240040002408C6000000B0002407F
:105B60000A0002400900024008000240F0B4114E51
:105B7000366834000F4E366856F47F060D4F3E608F
:105B80000E0616F0706656EA0076170517F47007D1
:105B90003E431F0417F470273E43074F3E60002624
:105BA0003500EDB29D4201D26D1CFAE7014E346022
:105BB000F0BC704700F001404480044080B500F024
:105BC00095F800F02AF800F00AF8FEF7B7FB01227A
:105BD00001210420FDF75AFE00F0A8F8FEE780B589
:105BE0000320FFF78CFD33490860324800684FF40A
:105BF0007A714843304908602F4800682F49096886
:105C0000C1F30361491CB0FBF1F02D4908605FF45A
:105C1000E1310420FDF7B1FB01BD2DE9F84329482E
:105C2000294988420DD000208046B8F5826F08D2FD
:105C30002448254951F8281040F8281018F1010887
:105C4000F3E72048FDF7F2F9204807002048060056
:105C500020480400A01B80464046B0F101080028FF
:105C600004D030783870761C7F1CF5E71A488146DE
:105C70001A480500B5EB090080464046B0F101081E
:105C8000002805D0002089F8000019F10109F4E787
:105C900013481449144A531A98464346B3F101086D
:105CA000002B04D00B780370491C401CF5E7BDE8BD
:105CB000F1830000BC0EFF1FB80EFF1F448004409C
:105CC000C00EFF1F0000FF1F000000001004FF1F98
:105CD0007C1900004C220000A80EFF1F8626FF1F23
:105CE000E00CFF1FF4590000BC5B000080B500F021
:105CF00008F80C4800884FF6FE71084009490880F2
:105D000001BDEFF3118072B607494CF220520A80B0
:105D100005494DF628120A80C0B2002800D162B6AB
:105D200070470000002005400E20054080B5FCF7BC
:105D300090FCFCF745FDFCF778FDFCF786FDFCF7D1
:105D400093FDFCF700FEFCF78EFCFCF7CCFCFCF7A7
:105D5000C3FC1F4800780028FBD1FCF717FE1D4844
:105D60000068FCF70DFD1C480278C821C820FCF72C
:105D7000AFFD1A4890F90000194911EB40002821A5
:105D80004180FCF770FAFEF707FA4FF416721549D6
:105D9000154800F031F8154800884FF42F718842FB
:105DA00004D212480088401C10490880FEF762FFA8
:105DB000FFF73AFA0E480088FCF7CDFD0D48007851
:105DC000FE28E0D14FF49651074800F05FF8DAE77B
:105DD000400CFF1F440CFF1F4D0CFF1F340CFF1F16
:105DE000CC24FF1FC40EFF1F1C11FF1F7826FF1FAE
:105DF0006E26FF1F4C0CFF1FF8B400AB224C258809
:105E00001D8005000C001600721E002E3AD0267868
:105E10003300641CDBB2DE1100AFF65D2E706D1C2A
:105E2000C3F38016F6B200AFF65D2E706D1CC3F39F
:105E30004016F6B200AFF65D2E706D1CC3F300166F
:105E4000F6B200AFF65D2E706D1CC3F3C006F6B25D
:105E500000AFF65D2E706D1CC3F38006F6B200AF86
:105E6000F65D2E706D1CC3F34006F6B200AFF65D12
:105E70002E706D1CDBB213F0010600AFF65D2E70C4
:105E80006D1CC0E7F1BC7047AE0F000038B50400D0
